S0100000546578745F6C63642E73726563DD
S113000045C0000060C000005EC000005CC000008D
S11300105AC0000058C0000056C0000054C0000080
S113002052C0000050C000004EC000004CC0000090
S11300306EC0000048C0000046C0000044C000007C
S113004043C0000040C000003EC000003CC00000AF
S11300503AC0000038C0000036C0000034C00000C0
S113006032C0000030C000002EC000002CC00000D0
S11300702AC0000028C00000C0C0000024C0000046
S113008022C0000020C000001EC0000011241FBEBA
S1130090CFEFD0E1DEBFCDBF14E0A0E0B1E0E4E9F2
S11300A0F3E000E00BBF02C007900D92AC3EB10735
S11300B0D9F724E0ACEEB4E001C01D92A53FB2072D
S11300C0E1F7D8D065C19CCF1F920F920FB60F9263
S11300D011248F939F93F89482ED82BF8091EC0456
S11300E08F5F8093EC04843651F4349BFECF84B14B
S11300F095B19093F1048093F0041092EC047894F9
S11301009F918F910F900FBE0F901F9018951F9283
S11301100F920FB60F9211240BB60F922F938F9359
S11301209F93EF93FF93F894E091F204F0E0E05092
S1130130FF4F80818BBBE091ED04F091EE04EE0F54
S1130140FF1FEC5FFE4F81818BBDE091ED04F091C8
S1130150EE04EE0FFF1FEC5FFE4F80818ABD80919D
S1130160ED049091EE0401969093EE048093ED04D7
S11301708091ED049091EE048C32914031F48BE245
S113018091E09093EE048093ED048091F2048F5FEC
S11301908093F2048091F204843011F41092F204FA
S11301A08091F3049091F40401969093F404809365
S11301B0F3048091F3049091F404883E934081F415
S11301C087B7817087BF86B7817086BF1092EE04AF
S11301D01092ED041092F2041092F4041092F304BD
S11301E07894FF91EF919F918F912F910F900BBE77
S11301F00F900FBE0F901F9018951F920F920FB67D
S11302000F9211240BB60F928F93EF93FF93EBE9A8
S1130210F0E080818823ECF780919C008093EF04C8
S1130220FF91EF918F910F900BBE0F900FBE0F9027
S11302301F90189587E083BF82ED82BF87B78160E6
S113024087BF86B7816086BF7894089581EC87B9AB
S113025086EA86B9369A08951092980087E68093C4
S1130260990010929B0088E980939A0086E080931D
S11302709D000895DFDFEADFEFDF8FE19EE4019761
S1130280F1F700C0000082E880938B008BE180933B
S11302908A00109288001092890087E893E1909375
S11302A08100809380001092870010928600109243
S11302B0610088E082B98FEF8ABB7894B4E5ABE043
S11302C07FE764E60F2EF5E0EF2EF02DD12CE6E863
S11302D0F0E04BED51E020E931E0DE2DFD2C809182
S11302E0F0049091F1044E9738F1BFBDAEBD1CBC33
S11302F01DBC7BBD6ABD87B7806187BF86B780613F
S113030086BF78948D2F9F2D51834083CFEF03EDCB
S113031010E3C15000401040E1F700C000003183F9
S11303202083CFEF03ED10E3C15000401040E1F70C
S113033000C00000019741F78091EF04813079F605
S1130340BFBDAEBD1CBC1DBC7BBD6ABD87B7806193
S113035087BF86B7806186BF78948E2D9D2D51838B
S11303604083CFEF03ED10E3C15000401040E1F7AC
S113037000C0000031832083CFEF03ED10E3C150B0
S113038000401040E1F700C00000019741F7A7CFFB
S1070390F894FFCF0B
S11303940A060509647FC4347D282222121E301BF8
S11303A400194517DB15AC14A913C912041256110C
S11303B4BA102E10AE0F3A0FCF0E6C0E110EBC0DE8
S11303C46D0D230DDE0C9D0C5F0C250CEE0BBA0B8E
S11303D4880B590B2C0B010BD80AB00A8B0A660A3A
S11303E4440A220A020AE309C509A8098C09710905
S11303F457093D0925090D09F608E008CA08B50896
S1130404A0088C08790866085308410830081F08B6
S11304140E08FE07EE07DE07CF07C007B207A307DF
S1130424960788077B076D076107540748073C074D
S11304343007240719070E070307F806ED06E30639
S1130444D906CF06C506BB06B206A8069F069606BD
S11304548D0684067B0673066A0662065A065206ED
S11304644A0642063B0633062C0624061D061606D7
S11304740F0608060106FA05F305ED05E605E00591
S1130484D905D305CD05C705C105BB05B505AF051C
S1130494A905A4059E05980593058D05880583057E
S11304A47E05780573056E05690564055F055A05BF
S11304B4550551054C05470543053E053A053505E3
S11304C431052C05280524051F051B0517051305EF
S11304D40F050B0507050305FF04FB04F704F304E8
S11304E4EF04EB04E804E404E004DD04D904D504D3
S11304F4D204CE04CB04C704C404C104BD04BA04A6
S1130504B704B304B004AD04AA04A604A304A00469
S11305149D049A049704940491048E048B0488041F
S1130524850482047F047C047904770474047104CC
S11305346E046B0469046604630461045E045B046E
S113054459045604540451044F044C044A04470403
S11305544504420440043D043B0439043604340491
S113056432042F042D042B04280426042404220416
S11305741F041D041B041904170414041204100496
S11305840E040C040A04080406040404020400040B
S1130594FE03FC03FA03F803F603F403F203F00383
S11305A4EE03EC03EA03E803E603E403E303E103F1
S11305B4DF03DD03DB03D903D803D603D403D20357
S11305C4D103CF03CD03CB03CA03C803C603C503B6
S11305D4C303C103C003BE03BC03BB03B903B70312
S11305E4B603B403B203B103AF03AE03AC03AB036A
S11305F4A903A703A603A403A303A103A0039E03BF
S11306049D039B039A03980397039603940393030C
S1130614910390038E038D038C038A038903870358
S1130624860385038303820380037F037E037C03A1
S11306347B037A03780377037603740373037203E7
S113064471036F036E036D036B036A036903680329
S11306546603650364036303620360035F035E0369
S11306645D035C035A0359035803570356035403A5
S113067453035203510350034F034E034C034B03E0
S11306844A03490348034703460345034303420318
S1130694410340033F033E033D033C033B033A034E
S11306A43903380337033603340333033203310382
S11306B430032F032E032D032C032B032A032903B6
S11306C428032703260325032403230322032103E6
S11306D420031F031E031E031D031C031B031A0311
S11306E4190318031703160315031403130312033E
S11306F41103100310030F030E030D030C030B0368
S11307040A03090308030803070306030503040390
S113071403030203010301030003FF02FE02FD02BB
S1130724FC02FC02FB02FA02F902F802F702F702E5
S1130734F602F502F402F302F202F202F102F0020A
S1130744EF02EE02EE02ED02EC02EB02EA02EA022E
S1130754E902E802E702E702E602E502E402E4024F
S1130764E302E202E102E102E002DF02DE02DE026F
S10F0774DD02DC02DB02DB02DA02D90247
S9030000FC
